:020000040800F2
:10000000E84B002021020008E70E0008DF0D000881
:10001000E50E00082703000821100008000000007A
:10002000000000000000000000000000890100083E
:100030002903000800000000CD010008210F00087E
:100040003B0200083B0200083B0200083B0200089C
:100050003B0200083B0200083B0200083B0200088C
:100060003B0200083B0200083B0200083B0200087C
:100070003B0200083B0200083B0200083B0200086C
:100080003B0200083B0200083B0200083B0200085C
:100090003B0200083B0200083B0200083B0200084C
:1000A0003B0200083B0200083B0200083B0200083C
:1000B0003B0200083B020008950F00083B020008C5
:1000C0003B0200083B0200083B0200083B0200081C
:1000D0003B0200083B0200083B0200083B0200080C
:1000E0003B0200083B0200083B02000800F002F857
:1000F00000F03AF80AA090E8000C82448344AAF188
:100100000107DA4501D100F02FF8AFF2090EBAE885
:100110000F0013F0010F18BFFB1A43F0010318473B
:100120004019000060190000103A24BF78C878C157
:10013000FAD8520724BF30C830C144BF04680C60ED
:10014000704700000023002400250026103A28BF35
:1001500078C1FBD8520728BF30C148BF0B60704739
:100160001FB51FBD10B510BD00F0A4F81146FFF774
:10017000F7FF00F066FF00F0C2F803B4FFF7F2FFEC
:1001800003BC00F0C9F80000224B19680868B0E809
:10019000F00F80F30988BFF36F8F4FF0000080F3FA
:1001A00011884EF00D0E70470000000006480068F0
:1001B000006880F3088862B661B6BFF34F8FBFF363
:1001C0006F8F00DF00BF00BF08ED00E0EFF3098094
:1001D000BFF36F8F0F4B1A6820E9F00F106008B55E
:1001E0004FF0BF0080F31188BFF34F8FBFF36F8FC5
:1001F00001F062FA4FF0000080F31188BDE808407A
:1002000019680868B0E8F00F80F30988BFF36F8FB2
:10021000704700BF38000020EFF3058070470000F2
:100220000948804709480047FEE7FEE7FEE7FEE78A
:10023000FEE7FEE7FEE7FEE7FEE7FEE704480549C6
:10024000054A064B70470000930F0008ED000008B8
:10025000E8450020E84B0020E8470020E847002060
:100260004FF0000200B5134694469646203922BF4F
:10027000A0E80C50A0E80C50B1F12001BFF4F7AF9A
:10028000090728BFA0E80C5048BF0CC05DF804EB7C
:10029000890028BF40F8042B08BF704748BF20F8EA
:1002A000022B11F0804F18BF00F8012B70477047E8
:1002B00070477047754600F02BF8AE46050069465A
:1002C000534620F00700854618B020B5FFF7B6FF6B
:1002D000BDE820404FF000064FF000074FF0000847
:1002E0004FF0000B21F00701AC46ACE8C009ACE8C8
:1002F000C009ACE8C009ACE8C0098D46704710B52C
:100300000446AFF300802046BDE81040FFF735BF3C
:10031000004870478845002001491820ABBEFEE721
:10032000260002007047FEE7704700001CB5074931
:100330000120CDE900010023802205A1074801F03A
:100340000FFABDE81C4001F07BB90000000000205E
:1003500053746172745F5461736B0000E90E00089E
:100360002DE9F84FDFF8B8910024A9F1040B2346DA
:100370000F2709F1040AABF1040EC9E00125A540DD
:100380002A40AA427DD1674ED1F804C0ACEB0608E2
:10039000B44532D014DCBCF1030F3AD009DCBCF117
:1003A000000F2AD0BCF1010F1CD0BCF1020F31D1DB
:1003B0001DE0BCF1110F17D0BCF1120F2AD119E0CA
:1003C000B8F5881F19D006DCB8F5803F15D0B8F510
:1003D000801F1FD111E0B8F5001F0ED0B8F5041F23
:1003E00018D10AE0CB6815E0CB681B1D12E0CB6882
:1003F00008330FE0CB680C330CE08B682BB1012B7A
:100400004FF0080303D0456104E0042302E00561D6
:1004100000E00023FF2A01D8064601E000F10406AF
:100420004FEA840501D9A5F12005D6F8008007FA26
:1004300005FC28EA0C0803FA05F548EA0508C6F8A1
:1004400000804D68ED0062D5374DAE6946F001067B
:10045000AE61AD6924F0030605F001050095334D4A
:1004600006EB050CDCF80850A607360F07FA06F86D
:1004700025EA0805DFF8B880404503D14FF00008B1
:1004800017E044E0DFF8AC80404502D14FF00108AE
:100490000FE0DFF8A480404502D14FF0020808E0E9
:1004A000DFF89880404502D14FF0030801E04FF09B
:1004B000040808FA06F848EA0508CCF808804D68F0
:1004C000D9F80060ED024D4601D5164300E0964391
:1004D0002E604D68DAF80060AD02554601D516432E
:1004E00000E096432E604D68DBF80060AD035D468A
:1004F00001D5164300E096432E604D68DEF800609B
:10050000ED03754601D5164300E096432E60641C4A
:100510000D682A46E5407FF431AFBDE8F88F000052
:1005200008040140000011100010024000000140CA
:1005300000080140000C014000100140001401407F
:100540000AB1016170470904FBE7000001488068B7
:1005500070470000080000200248816802781144BA
:100560008160704708000020074810B5016841F01D
:1005700010010160032000F0A1F8012000F006F84E
:1005800000F050F8002010BD0020024030B50546B4
:100590001F4887B0C16941F00401C161C06906A963
:1005A00000F00400009001A800F030F90498B0B108
:1005B00000F04CF940001749174AB0FBF1F1174819
:1005C000491E0260416040F2E7320021C0E9032188
:1005D0008160816100F002FB040003D015E000F0AF
:1005E00035F9E8E70D4800F027FB04000DD11E2087
:1005F00000F036F8102D07D2002229461E2000F008
:100600003DF80748056000E0012407B0204630BDF2
:100610000010024040420F00000800407800002017
:100620000C0000200C4808B5816941F0010181618E
:10063000816901F001010091C16941F08051C161FE
:10064000C06900F0805000900448416821F0E061EA
:1006500041F00071416008BD0010024000000140FF
:10066000002809DB00F01F020121914040098000B1
:1006700000F1E020C0F8001170470000F0B40E4B0C
:100680001B680C46C3F30223C3F10705042D00D9F0
:100690000425191D072901D2002300E0DB1E0126D5
:1006A00006FA05F1491E214099409E40761E1640EB
:1006B0003143F0BC00F0B5BC0CED00E0064900F0A1
:1006C000070208684FF6FF03184040EA0220034A79
:1006D00010430860704700000CED00E00000FA05D0
:1006E0002DE9F0470F46050061D0434E306800F019
:1006F0000700B84209D2306820F007003843306064
:10070000306800F00700B84251D128683B4C81079F
:1007100012D5400703D5606840F4E0606060287837
:10072000000703D5606840F4605060606068A968A5
:1007300020F0F000084360602878C00728D068687F
:10074000012810D02168022810D0890700292EDA4C
:10075000616821F0030101436160FFF7F7FE804605
:1007600041F288390DE021688903EFE78901EDE75F
:10077000FFF7ECFEA0EB0801494502D90320BDE8D4
:10078000F0876068696800F00C00B0EB810FEFD172
:10079000306800F00700B8420BD9306820F007003D
:1007A00038433060306800F00700B84201D00120C3
:1007B000E5E72878400705D56068E96820F4E0603F
:1007C000084360602878000706D56068296920F42E
:1007D000605040EAC100606000F048F86168084A73
:1007E000C1F30311515CC84006490860064800681F
:1007F000FFF7CCFE0020C2E70020024000100240BC
:10080000461A0008140000200C0000200F2202608D
:100810000C4A536803F003034360536803F0F0038A
:100820008360536803F4E063C36052684FF4E0638D
:1008300003EAD20202610448006800F00700086081
:1008400070470000001002400020024004480549A3
:1008500000684968044AC1F30221515CC8407047EE
:100860001400002000100240561A00080E4A516879
:100870000E4801F00C03042B11D0082B0FD10C48AB
:10088000C1F38343C903C05C0AD55168084AC1F368
:100890004041921E515C054A5043B0FBF1F0704755
:1008A00004494843704700000010024000127A00DB
:1008B000361A000800093D002DE9F84F040070D0F9
:1008C0002078C04DC00749D06868C0F38100012876
:1008D00007D06868C0F38100022809D16868C003A6
:1008E00006D52868800339D560680028E7D035E050
:1008F0006068B0F5803F0BD010B1B0F5A02F11D0DB
:10090000286820F480302860286820F4802002E0E5
:10091000286840F480302860606890B1FFF716FEC8
:1009200006460AE0286840F480202860F0E700BF0F
:10093000FFF70CFE801B642873D828688003F7D566
:100940000CE0FFF703FE064605E000BFFFF7FEFDE3
:10095000801B6428F0D828688003F7D420789A4E4A
:1009600080074FF001094FF0000839D5686810F092
:100970000C0F07D06868C0F38100022809D16868AD
:10098000C00306D42868800714D52069012808D13F
:1009900010E02069B0B1C6F80090FFF7D7FD074618
:1009A00005E00AE1FFF7D2FDC01B0228C4D8286881
:1009B0008007F7D52868616920F0F80040EAC10097
:1009C00028600DE0C6F80080FFF7C0FD074604E090
:1009D000FFF7BCFDC01B022823D828688007F7D486
:1009E000207800072CD57948A169D9B1C0F80090CA
:1009F000FFF7ACFD074604E0FFF7A8FDC01B022887
:100A00000FD8686A8007F7D571484FF4FA5100682B
:100A1000B0FBF1F0009000BF0098411E0091FAD2A7
:100A20000EE080E0C0F80080FFF790FD074604E08C
:100A3000FFF78CFDC01B022875D8686A8007F7D4C1
:100A40002078400760D5E8690027C00008D4E8692D
:100A500040F08050E861E869012700F08050009084
:100A60005C480168C90513D40168834641F480716C
:100A70000160FFF76BFD824606E000BFFFF766FDF1
:100A8000A0EB0A0064284ED8DBF80000C005F5D5BD
:100A9000E06801280AD008B1052813D0286A20F0A0
:100AA00001002862286A20F0040002E0286A40F071
:100AB00001002862E06841F2883B98B1FFF746FDEB
:100AC00082460BE0286A40F004002862EEE700BF8F
:100AD000FFF73CFDA0EB0A0159455AD8286A800768
:100AE000F6D50CE0FFF732FD824605E0FFF72EFD5C
:100AF000A0EB0A0159454CD8286A8007F6D41FB1EB
:100B0000E86920F08050E861E06988B36968C1F362
:100B10008101022944D00228C6F8608004D0FFF782
:100B200015FD044638E034E0FFF710FD074604E009
:100B3000FFF70CFDC01B02282BD828688001F7D4D2
:100B4000206AB0F5803F05D16868A16820F40030C4
:100B500008436860D4E908010843696821F4741106
:100B600008436860C6F86090FFF7F0FC044606E0B2
:100B700025E000BFFFF7EAFC001B022809D828681F
:100B80008001F7D51BE000BFFFF7E0FC001B022847
:100B900002D90320BDE8F88F28688001F4D40EE064
:100BA0000128F7D06868226A00F48031914204D1AC
:100BB000616A00F47010884201D00120EAE7002049
:100BC000E8E7000000100240000042428004424278
:100BD00014000020007000407047704710B50400FA
:100BE00003D094F83D0010B107E0012010BD0020B3
:100BF00084F83C00204600F01EF8022084F83D00F6
:100C0000211D206800F0CCF9012084F8460084F80A
:100C10003E0084F83F0084F8400084F8410084F8E6
:100C2000420084F8430084F8440084F8450084F8C6
:100C30003D00002010BD704790F83D10012901D003
:100C400001207047022180F83D100168CA6842F017
:100C50000102CA6000680B49884208D0B0F1804F99
:100C600005D00949884202D00849884204D18168E8
:100C700001F00701062903D0016841F0010101607C
:100C800000207047002C0140000400400008004094
:100C900070472DE9F04104460068C66805694FF0C9
:100CA0000007A90713D5B10711D5F91E016101206D
:100CB0002077206880698007204602D0FFF7E8FF90
:100CC00004E000F07EF8204600F07CF82777680703
:100CD00016D5700714D521686FF004000861022052
:100CE00020772068806910F4407F204602D0FFF70B
:100CF000CFFF04E000F065F8204600F063F82777A6
:100D0000280715D5300713D521686FF00800086152
:100D1000042020772068C0698007204602D0FFF7B2
:100D2000B7FF04E000F04DF8204600F04BF82777BD
:100D3000E80616D5F00614D521686FF0100008619A
:100D4000082020772068C06910F4407F204602D038
:100D5000FFF79EFF04E000F034F8204600F032F880
:100D60002777E80708D0F00706D021686FF0010068
:100D70000861204600F028F8280608D5300606D578
:100D800021686FF0800008612046FFF725FF6806A4
:100D900008D5700606D521686FF04000086120462E
:100DA00000F01CF8A8060AD5B00608D521686FF037
:100DB000200008612046BDE8F041FFF70EBFBDE806
:100DC000F08170477047000000680349884201D1F4
:100DD000FFF7C2BB70470000000800407047FEE705
:100DE000094B012808D0022809D003280AD1012282
:100DF00008211846FFF7A4BB01220221F9E70122CE
:100E00000421F6E77047000000080140094B012863
:100E100008D0022809D003280AD100220821184648
:100E2000FFF78EBB00220221F9E700220421F6E73A
:100E3000704700000008014070B501244FF4FA75B6
:100E40002046FFF7E3FF284600F08EFB2046FFF721
:100E5000C7FF284600F088FB641CE4B2032CEFD9DE
:100E600070BD000030B585B000241C48009401948A
:100E700002940394816941F010018161816901F05C
:100E800010010491816941F020018161816901F0C3
:100E900020010491816941F004018161816901F0BF
:100EA00004010491816941F00801816180690C4D60
:100EB00000F00800049001220E212846FFF740FBB5
:100EC0000E2000900120CDE9010403200390694623
:100ED0002846FFF745FA05B030BD0000001002407B
:100EE00000080140FEE7FEE71CB500F0F7FA0849EC
:100EF0000220CDE900010023802206A1074800F06E
:100F00002FFC002000F048FBBDE81C4000F0F4BAC4
:100F1000040000205461736B3100000019100008B8
:100F200010B500F04BFC012803D0BDE8104000F0E4
:100F300001BC10BD30B58FB028216846FFF790F98D
:100F400014210AA8FFF78CF901210804CDE900104B
:100F50000024029402250491CDE907504FF4E010DB
:100F600009906846FFF7A8FC08B172B6FEE70F20AB
:100F7000CDE90A054FF48060CDE90C4002210AA8B2
:100F80000E94FFF7ADFB002801D072B6FEE70FB05C
:100F900030BD70470148FFF77CBE0000780000209C
:100FA000F0B50268194B1A4C1A4D4FF08047984221
:100FB00005D0B84203D0A04201D0A84203D122F00C
:100FC00070064A683243984205D0B84203D0A04226
:100FD00001D0A84203D122F44074CA6822434C696C
:100FE00022F08002224302608A68C2620A6882623A
:100FF000984201D109690163012141610169C90771
:1010000003D0016921F001010161F0BD002C014014
:1010100000040040000800400120FFF70DFFFBE73F
:10102000FEE70907090E002804DB00F1E02080F844
:101030000014704700F00F0000F1E02080F8141D4C
:101040007047FFF791FAFFF775FFFFF70BFFFFF708
:101050006DF90020FFF748FF0020FFF7DDFFFEE7F6
:101060002DE9F047204C0F460546E668D4F8349049
:10107000D4F838802068001D00F0ECF938B92068F9
:1010800090F82C1001208840216981432161681C5F
:1010900015D1A7B115492268486890602368826815
:1010A000DA6022688368121D5A602268121D82600D
:1010B000206841610868401C0860BDE8F08720682E
:1010C0003544B5424560216805D24046BDE8F04749
:1010D000091D00F0DFB94846091D00F0DBF9A06AE0
:1010E0008542EAD2A562E8E7380000207445002076
:1010F0002DE9F041054600F0F1F9364CA068401C9E
:10110000A0602068344F10B1606940B32DE02560C5
:10111000A068012829D1002606EB860007EB800095
:1011200000F0AAF9761C052EF6D32B48643000F0A7
:10113000A3F92948783000F09FF927488C3000F057
:101140009BF92548A03000F097F92348B43000F00F
:1011500093F92148643060631430A06305E020688F
:10116000E96AC06A884200D82560606A0121401C93
:101170006062E86A226981401143216100EB8000CE
:1011800007EB80004068A8608168E9608268291DDB
:1011900051608160E86A00EB800007EB80016961C3
:1011A00057F82010491C47F8201000F0A5F9606995
:1011B00000280CD02068E96AC06A884207D2074933
:1011C0004FF080500860BFF34F8FBFF36F8FBDE8C3
:1011D000F081000038000020C044002004ED00E051
:1011E00070B50C4C0C4E11E000F078F9F068C56851
:1011F000281D00F02FF9A068401EA0606068401E06
:10120000606000F079F9284600F008F8606800286E
:10121000EAD170BD380000206045002010B50446BA
:10122000006B00F073F92046BDE8104000F06EB985
:101230000E484FF48841420706D0C01D0B4920F0EC
:101240000700411AC1F58841094A00230144C2E957
:1012500000030839143A21F0070111604B600B605C
:101260000B1AC0E90013936053607047C000002060
:101270002C000020074C4FF08056074DFFF7B0FFC1
:1012800020680128FAD92E60BFF34F8FBFF36F8F0C
:10129000F4E70000C044002004ED00E02DE9F04731
:1012A0009946DDE9096480466FF00303206B03EB88
:1012B0008202089D104420F0070761B10020231826
:1012C0000A5C83F834200A5C12B1401C1028F6D363
:1012D000002084F84300052D00D30425201DE5627D
:1012E00000F0D5F804F1180000F0D1F82461C5F140
:1012F00005006462A0614A464146384600F098F80D
:101300002060002E00D03460BDE8F08730B5114970
:1013100000E011460A688242FBD34B685C188442A5
:1013200003D1406818444860084643681C1894423A
:1013300009D1084C143C2468A24209D052681A44CE
:1013400042600A6812680260814200D0086030BDC5
:101350000460F9E72C0000200548416B096821B1C1
:10136000416BC9680968816270474FF0FF31FAE745
:1013700038000020BF2080F31188BFF34F8FBFF3E8
:101380006F8FFEE72DE9F04104004FF000060FD00B
:1013900014F1090F0BD80834600709D004F00700D6
:1013A000C0F10800C1438C4201D8044400E000248D
:1013B00000F07AF91D4D286808B9FFF739FF002CB5
:1013C0002FDD6B689C422CD8184814300146096800
:1013D00001E0084611464A68A24202D20A68002A81
:1013E000F7D12A6891421CD006680A6802604A68F0
:1013F0000836171B102F05D90A1957604C6004686E
:10140000146002604A68981A6860AB68984200D21B
:10141000A86042F00040486000200860E868401C76
:10142000E86000F06DFA3046BDE8F0811800002059
:1014300010B5031F4FF080741C601B1F21F00101C9
:101440001960191F024B0B60143940380A6010BD37
:1014500075130008D0E9013201699A60D0E90123CF
:101460005A604A68824201D182684A600022026161
:101470000868401E0860704700F108014FF0FF3215
:10148000C0E90112C16001610021016070470021C3
:101490000161704730B50B685A1C02D000F1080298
:1014A00002E0026904E02246546825689D42FAD9A8
:1014B00053684B6099608A60516008610168491CFB
:1014C000016030BD42684A6093688B6093685960E0
:1014D000916008610168491C01607047BF2080F37A
:1014E0001188BFF34F8FBFF36F8F02480168491C0B
:1014F000016070473400002003490868401E0860FE
:1015000001D180F3118870473400002070B50028A5
:101510001BD0A0F108046068002816DA21680029B1
:1015200013D120F00040606000F0BEF8074D606805
:101530006968084468602046FFF7E8FE2869401C97
:101540002861BDE8704000F0DBB970BD18000020D4
:101550004FF0E020002101618161024941610721D2
:10156000016170473F19010010B5020009D000F079
:101570009BF800211046FFF773FD00F0C1F9002829
:1015800007D104494FF080500860BFF34F8FBFF37D
:101590006F8F10BD04ED00E070B50546FFF79EFFAC
:1015A000244C05B92568281DFFF754FF58B9E86A8F
:1015B000214A00EB800152F8211021B9012181401C
:1015C000206988432061A86A18B105F11800FFF767
:1015D00041FF606A401C60622068854201D10120A1
:1015E00000E00020616959B150B11348291DA030B5
:1015F000FFF768FF6068401C6060FFF77DFF09E04F
:10160000A068401EA060FFF7A7FEFFF775FF284601
:10161000FFF704FE606900280AD02068854207D1E0
:1016200006494FF080500860BFF34F8FBFF36F8FB4
:1016300070BD000038000020C044002004ED00E030
:1016400030B587B0002002A913A2125C0A5412B16F
:10165000401C1028F8DB13490025CDE90051104843
:101660002B46802202A900F07BF80E4C3C3C80B156
:1016700001280ED1BF2080F31188BFF34F8FBFF335
:101680006F8F4FF0FF30A06201206061E56000F0D5
:1016900039F8E06A07B030BD49444C45000000000D
:1016A00075120008740000200248016B491C016398
:1016B000704700003800002010490A6B01F11C003F
:1016C00012B10121016070470022026008690C4AD2
:1016D000B0FA80F0C0F11F0000EB800002EB800048
:1016E00000F108034268526842609A4201D1C26820
:1016F0004260D06808600868704700003800002029
:10170000C0440020094810B5016841F47F01016020
:10171000016841F07F410160FFF71AFF0449002092
:101720000860FEF743FD002010BD000020ED00E042
:101730003400002010B5BF2080F31188BFF34F8F15
:10174000BFF36F8F00F048F818B104494FF0805094
:101750000860002080F3118810BD000004ED00E057
:101760002DE9FF5F8346DDE90E878A4616469946D6
:101770009000FFF707FE05001DD04C20FFF702FE8A
:10178000040015D04C21FEF76BFD25630021CDE947
:101790000241CDE900874B46324651465846FFF795
:1017A0007DFD2046FFF7A4FC012004B0BDE8F09FBA
:1017B0002846FFF7ABFE4FF0FF30F6E705484169DA
:1017C00019B1006B18B1002070470120704702204A
:1017D00070470000380000202DE9F041464C0026FB
:1017E000206B28B1A069401CA0613046BDE8F081A3
:1017F000E5686D1CE56008D1606BA16B6163A06357
:10180000206A401C2062FFF7A7FDA16A3B488D4279
:101810000FD34FF0000E616B096839B1616BC96875
:10182000C9684A68954214D2A26202E04FF0FF31C3
:10183000A1622168C96A01EB810150F821000128E9
:1018400000D901262C481C3000680028CDD0012684
:10185000CBE7D1E902724B69BA60D1E902277A601D
:101860005F680A1D974201D1CF685F60C1F814E03C
:101870001F687F1E1F60D1F828C0BCF1000F15D073
:10188000D1E907379F60D1E907377B60DCF8047046
:1018900001F118039F4202D10B6ACCF80430C1F861
:1018A00028E0DCF800305B1ECCF80030CB6A012762
:1018B000D4F810C09F4047EA0C07276103EB83036D
:1018C00000EB83035B688B609F68CF609F687A60E2
:1018D0009A60CA6A02EB820200EB82034B6150F805
:1018E00022305B1C40F82230C96A2268D26A9142D9
:1018F00091D901268FE7000038000020C044002065
:101900002DE9F0470024A046FFF7E8FD464D0026EC
:10191000286B401E2863286B002807D1A868434A1B
:10192000A2464FF0010905F11C07E8BB77E0D0683B
:10193000C468D4E90731A06A9960D4E907135960F3
:10194000436804F118018B4201D1216A4160C4F857
:1019500028A001685346491E0160D4E902C06169AC
:10196000CCF80800D4E9020CCCF80400D1F804C08B
:10197000201D844503D1D4F80CC0C1F804C06361B4
:101980000B685B1E0B60E36AD5F810C009FA03F11F
:1019900041EA0C01296103EB8301244B8C3B03EBEF
:1019A00081014968A16000E01AE0D1F808C0C4F8DC
:1019B0000CC0D1F808C0CCF804008860E06A00EBE5
:1019C000800003EB8001616153F82010491C43F84B
:1019D0002010E06A2968C96A884201D947F8269030
:1019E00010680028A3D10CB1FFF7B6FCAC6944B174
:1019F000FFF7F2FE08B147F82690641EF8D1C5F84B
:101A000018A057F8260050B128684FF0010808497F
:101A10004FF080500860BFF34F8FBFF36F8FFFF719
:101A20006BFD4046BDE8F087380000204C450020A3
:101A300004ED00E0010202030405060708090A0B91
:101A40000C0D0E0F1010000000000000000001023D
:101A50000304060708090000000001020304000057
:101A6000801A00080000002078000000280100080B
:101A7000F81A000878000020704B000044010008AC
:101A80000000000000000000010000001000000045
:101A90000000000000127A000000000000000000BA
:101AA0000000000000000000000000000000000036
:101AB00000000000AAAAAAAA00000000000000007E
:101AC0000000000000000000000000000000000016
:101AD0000000000000000000000000000000000006
:101AE00000000000040000000000000000000000F2
:081AF0000000000000000000EE
:04000005080000ED02
:00000001FF
