:020000040800F2
:100000001809002021020008D3160008691500080D
:10001000D116000827030008591A00080000000044
:10002000000000000000000000000000890100083E
:100030002903000800000000CD010008D5160008C3
:100040003B0200083B0200083B0200083B0200089C
:100050003B0200083B0200083B0200083B0200088C
:100060003B0200083B0200083B0200083B0200087C
:100070003B0200083B0200083B0200083B0200086C
:100080003B0200083B0200083B0200083B0200085C
:100090003B0200083B0200083B0200083B0200084C
:1000A0003B0200083B0200083B0200083B0200083C
:1000B0003B0200083B020008491700083B02000809
:1000C0003B0200083B0200083B0200083B0200081C
:1000D0003B0200084D1A00083B0200083B020008E2
:1000E0002B0300083B0200083B02000800F002F866
:1000F00000F03AF80AA090E8000C82448344AAF188
:100100000107DA4501D100F02FF8AFF2090EBAE885
:100110000F0013F0010F18BFFB1A43F0010318473B
:10012000AC1B0000CC1B0000103A24BF78C878C17B
:10013000FAD8520724BF30C830C144BF04680C60ED
:10014000704700000023002400250026103A28BF35
:1001500078C1FBD8520728BF30C148BF0B60704739
:100160001FB51FBD10B510BD00F0A4F81146FFF774
:10017000F7FF01F083FC00F0C2F803B4FFF7F2FFD1
:1001800003BC00F0C9F80000224B19680868B0E809
:10019000F00F80F30988BFF36F8F4FF0000080F3FA
:1001A00011884EF00D0E70470000000006480068F0
:1001B000006880F3088862B661B6BFF34F8FBFF363
:1001C0006F8F00DF00BF00BF08ED00E0EFF3098094
:1001D000BFF36F8F0F4B1A6820E9F00F106008B55E
:1001E0004FF0BF0080F31188BFF34F8FBFF36F8FC5
:1001F00001F078FC4FF0000080F31188BDE8084062
:1002000019680868B0E8F00F80F30988BFF36F8FB2
:10021000704700BF14000020EFF305807047000016
:100220000948804709480047FEE7FEE7FEE7FEE78A
:10023000FEE7FEE7FEE7FEE7FEE7FEE704480549C6
:10024000054A064B7047000047170008ED000008FC
:1002500018030020180900201805002018050020A8
:100260004FF0000200B5134694469646203922BF4F
:10027000A0E80C50A0E80C50B1F12001BFF4F7AF9A
:10028000090728BFA0E80C5048BF0CC05DF804EB7C
:10029000890028BF40F8042B08BF704748BF20F8EA
:1002A000022B11F0804F18BF00F8012B70477047E8
:1002B00070477047754600F02BF8AE46050069465A
:1002C000534620F00700854618B020B5FFF7B6FF6B
:1002D000BDE820404FF000064FF000074FF0000847
:1002E0004FF0000B21F00701AC46ACE8C009ACE8C8
:1002F000C009ACE8C009ACE8C0098D46704710B52C
:100300000446AFF300802046BDE81040FFF735BF3C
:1003100000487047B802002001491820ABBEFEE734
:10032000260002007047FEE7704710B54FF480507A
:1003300000F07AF8BDE810404FF4005000F074B8B7
:1003400072B6FEE710B590F821100022022905D000
:100350000421816380F82020012010BD01680B6812
:1003600023F00E030B6001680B6823F001030B60A0
:1003700090F84030C46B012101FA03F3636080F808
:10038000211080F82020104610BD000010B590F814
:1003900021100024022903D00421816301243DE0BF
:1003A00001680A6822F00E020A6001680A6822F0F9
:1003B00001020A601A4A0168914201D1012121E03B
:1003C000174A1432914201D110211BE0144A2832FD
:1003D000914201D1891515E0114A3C32914201D177
:1003E00089140FE00E4A5032914202D14FF480310D
:1003F00008E00B4A6432914202D14FF4801101E0CF
:100400004FF08071064A083A5160012180F82110AE
:10041000002180F82010416B01B18847204610BDB3
:100420000800024070470000044910B50A68024203
:1004300002D00860FFF7F6FF10BD00001404014071
:100440002DE9F84FDFF8B8910024A9F1040B2346F9
:100450000F2709F1040AABF1040EC9E00125A540FC
:100460002A40AA427DD1674ED1F804C0ACEB060801
:10047000B44532D014DCBCF1030F3AD009DCBCF136
:10048000000F2AD0BCF1010F1CD0BCF1020F31D1FA
:100490001DE0BCF1110F17D0BCF1120F2AD119E0E9
:1004A000B8F5881F19D006DCB8F5803F15D0B8F52F
:1004B000801F1FD111E0B8F5001F0ED0B8F5041F42
:1004C00018D10AE0CB6815E0CB681B1D12E0CB68A1
:1004D00008330FE0CB680C330CE08B682BB1012B99
:1004E0004FF0080303D0456104E0042302E00561F6
:1004F00000E00023FF2A01D8064601E000F10406CF
:100500004FEA840501D9A5F12005D6F8008007FA45
:1005100005FC28EA0C0803FA05F548EA0508C6F8C0
:1005200000804D68ED0062D5374DAE6946F001069A
:10053000AE61AD6924F0030605F001050095334D69
:1005400006EB050CDCF80850A607360F07FA06F88C
:1005500025EA0805DFF8B880404503D14FF00008D0
:1005600017E044E0DFF8AC80404502D14FF00108CD
:100570000FE0DFF8A480404502D14FF0020808E008
:10058000DFF89880404502D14FF0030801E04FF0BA
:10059000040808FA06F848EA0508CCF808804D680F
:1005A000D9F80060ED024D4601D5164300E09643B0
:1005B0002E604D68DAF80060AD02554601D516434D
:1005C00000E096432E604D68DBF80060AD035D46A9
:1005D00001D5164300E096432E604D68DEF80060BA
:1005E000ED03754601D5164300E096432E60641C6A
:1005F0000D682A46E5407FF431AFBDE8F88F000072
:1006000008040140000011100010024000000140E9
:1006100000080140000C014000100140001401409E
:100620000AB1016170470904FBE7000001488068D6
:10063000704700000400002070B5040025D094F835
:100640003D00002520B984F83C50204600F0B8F861
:10065000242084F83D002068016821F00101016038
:100660002068016841F4004101602068016821F4BC
:100670000041016000F072FA4D4A6168914201D870
:100680004C4900E04C49884201D2012070BD4B49E1
:100690002368B0FBF1F15E6826F03F060E435E6012
:1006A0006368934206D94FF4967359434FF47A73B3
:1006B000B1FBF3F12368491C1E6A26F03F06314363
:1006C00019626168914210D84900401EB0FBF1F2F6
:1006D000521CC2F30B02042A01D2042022E0B0FB18
:1006E000F1F0401CC0F30B001CE0A268F2B301EB78
:1006F000C10303EB0116431EB3FBF6F35B1C43F48B
:1007000080431B0549D092B301EBC10202EB0111FA
:10071000401EB0FBF1F0401CC0F30B0040F48040E1
:1007200040F400402168CA694CF6FF739A431043B5
:10073000C861D4E9071001432068026822F0C002B2
:1007400011430160D4E9030101432068826848F243
:10075000FF339A4311438160D4E9050108432168BE
:10076000CA6822F0FF021043C86001E00EE016E004
:100770002068016841F0010101602564202084F8AF
:100780003D00256384F83E50002070BD01EB41061A
:10079000431EB3FBF6F35B1CB3E70120C2E701EB9A
:1007A0004101401EB0FBF1F0401CC0F30B00B7E765
:1007B000A086010080841E0000093D0040420F0019
:1007C00030B585B000210091019102910391214D36
:1007D0000368214C122103222048AB421DD1A3699A
:1007E00043F00803A361A369039203F00803049391
:1007F0001302CDE900316946FFF722FE184841682F
:1008000041F0E06141F002014160E06940F4001014
:10081000E061E06900F4001019E0124DAB4217D11D
:10082000A36943F00803A361A369039203F00803DB
:1008300004934FF44063CDE900316946FFF700FEB1
:10084000E06940F48000E061E06900F48000049019
:1008500005B030BD0054004000100240000C0140C3
:1008600000000140005800400248816802781144AD
:100870008160704704000020074810B5016841F00E
:1008800010010160032000F0A1F8012000F006F83B
:1008900000F050F8002010BD0020024030B50546A1
:1008A0001F4887B0C16941F00401C161C06906A950
:1008B00000F00400009001A800F030F90498B0B1F5
:1008C00000F04CF940001749174AB0FBF1F1174806
:1008D000491E0260416040F2E7320021C0E9032175
:1008E0008160816100F012FB040003D015E000F08C
:1008F00035F9E8E70D4800F037FB04000DD11E2064
:1009000000F036F8102D07D2002229461E2000F0F4
:100910003DF80748056000E0012407B0204630BDDF
:100920000010024040420F0000080040A8010020D3
:10093000080000200C4808B5816941F0010181617F
:10094000816901F001010091C16941F08051C161EB
:10095000C06900F0805000900448416821F0E061D7
:1009600041F00071416008BD0010024000000140EC
:10097000002809DB00F01F0201219140400980009E
:1009800000F1E020C0F8001170470000F0B40E4BF9
:100990001B680C46C3F30223C3F10705042D00D9DD
:1009A0000425191D072901D2002300E0DB1E0126C2
:1009B00006FA05F1491E214099409E40761E1640D8
:1009C0003143F0BC01F049B80CED00E0064900F0FD
:1009D000070208684FF6FF03184040EA0220034A66
:1009E00010430860704700000CED00E00000FA05BD
:1009F0002DE9F0470F46050061D0434E306800F006
:100A00000700B84209D2306820F007003843306050
:100A1000306800F00700B84251D128683B4C81078C
:100A200012D5400703D5606840F4E0606060287824
:100A3000000703D5606840F4605060606068A96892
:100A400020F0F000084360602878C00728D068686C
:100A5000012810D02168022810D0890700292EDA39
:100A6000616821F0030101436160FFF7DFFD80460B
:100A700041F288390DE021688903EFE78901EDE74C
:100A8000FFF7D4FDA0EB0801494502D90320BDE8DA
:100A9000F0876068696800F00C00B0EB810FEFD15F
:100AA000306800F00700B8420BD9306820F007002A
:100AB00038433060306800F00700B84201D00120B0
:100AC000E5E72878400705D56068E96820F4E0602C
:100AD000084360602878000706D56068296920F41B
:100AE000605040EAC100606000F058F86168084A50
:100AF000C1F30311515CC84006490860064800680C
:100B0000FFF7CCFE0020C2E70020024000100240A8
:100B1000B21C000810000020080000200F22026014
:100B20000C4A536803F003034360536803F0F00377
:100B30008360536803F4E063C36052684FF4E0637A
:100B400003EAD20202610448006800F0070008606E
:100B50007047000000100240002002400448054990
:100B600000684968044AC1F30221515CC8407047DB
:100B70001000002000100240C21C00080448054973
:100B800000684968044AC1F3C221515CC8407047FB
:100B90001000002000100240C21C00080E4A5168DC
:100BA0000E4801F00C03042B11D0082B0FD10C4878
:100BB000C1F38343C903C05C0AD55168084AC1F335
:100BC0004041921E515C054A5043B0FBF1F0704722
:100BD00004494843704700000010024000127A00A8
:100BE000A21C000800093D002DE9F84F040070D058
:100BF0002078C04DC00749D06868C0F38100012843
:100C000007D06868C0F38100022809D16868C00372
:100C100006D52868800339D560680028E7D035E01C
:100C20006068B0F5803F0BD010B1B0F5A02F11D0A7
:100C3000286820F480302860286820F4802002E0B2
:100C4000286840F480302860606890B1FFF7EEFCBF
:100C500006460AE0286840F480202860F0E700BFDC
:100C6000FFF7E4FC801B642873D828688003F7D55D
:100C70000CE0FFF7DBFC064605E000BFFFF7D6FC03
:100C8000801B6428F0D828688003F7D420789A4E17
:100C900080074FF001094FF0000839D5686810F05F
:100CA0000C0F07D06868C0F38100022809D168687A
:100CB000C00306D42868800714D52069012808D10C
:100CC00010E02069B0B1C6F80090FFF7AFFC07460E
:100CD00005E00AE1FFF7AAFCC01B0228C4D8286877
:100CE0008007F7D52868616920F0F80040EAC10064
:100CF00028600DE0C6F80080FFF798FC074604E086
:100D0000FFF794FCC01B022823D828688007F7D47B
:100D1000207800072CD57948A169D9B1C0F8009096
:100D2000FFF784FC074604E0FFF780FCC01B0228A5
:100D30000FD8686A8007F7D571484FF4FA510068F8
:100D4000B0FBF1F0009000BF0098411E0091FAD274
:100D50000EE080E0C0F80080FFF768FC074604E082
:100D6000FFF764FCC01B022875D8686A8007F7D4B7
:100D70002078400760D5E8690027C00008D4E869FA
:100D800040F08050E861E869012700F08050009051
:100D90005C480168C90513D40168834641F4807139
:100DA0000160FFF743FC824606E000BFFFF73EFC10
:100DB000A0EB0A0064284ED8DBF80000C005F5D58A
:100DC000E06801280AD008B1052813D0286A20F06D
:100DD00001002862286A20F0040002E0286A40F03E
:100DE00001002862E06841F2883B98B1FFF71EFCE1
:100DF00082460BE0286A40F004002862EEE700BF5C
:100E0000FFF714FCA0EB0A0159455AD8286A80075D
:100E1000F6D50CE0FFF70AFC824605E0FFF706FC7A
:100E2000A0EB0A0159454CD8286A8007F6D41FB1B7
:100E3000E86920F08050E861E06988B36968C1F32F
:100E40008101022944D00228C6F8608004D0FFF74F
:100E5000EDFB044638E034E0FFF7E8FB074604E02A
:100E6000FFF7E4FBC01B02282BD828688001F7D4C9
:100E7000206AB0F5803F05D16868A16820F4003091
:100E800008436860D4E908010843696821F47411D3
:100E900008436860C6F86090FFF7C8FB044606E0A8
:100EA00025E000BFFFF7C2FB001B022809D8286815
:100EB0008001F7D51BE000BFFFF7B8FB001B02283D
:100EC00002D90320BDE8F88F28688001F4D40EE031
:100ED0000128F7D06868226A00F48031914204D179
:100EE000616A00F47010884201D00120EAE7002016
:100EF000E8E7000000100240000042428004424245
:100F000010000020007000407047704710B50400CA
:100F100003D094F83D0010B107E0012010BD00207F
:100F200084F83C00204600F01EF8022084F83D00C2
:100F3000211D206800F00EFC012084F8460084F892
:100F40003E0084F83F0084F8400084F8410084F8B3
:100F5000420084F8430084F8440084F8450084F893
:100F60003D00002010BD704790F83D10012901D0D0
:100F700001207047022180F83D100168CA6842F0E4
:100F80000102CA6000680B49884208D0B0F1804F66
:100F900005D00949884202D00849884204D18168B5
:100FA00001F00701062903D0016841F00101016049
:100FB00000207047002C0140000400400008004061
:100FC00070472DE9F04104460068C66805694FF096
:100FD0000007A90713D5B10711D5F91E016101203A
:100FE0002077206880698007204602D0FFF7E8FF5D
:100FF00004E000F07EF8204600F07CF827776807D0
:1010000016D5700714D521686FF00400086102201E
:1010100020772068806910F4407F204602D0FFF7D7
:10102000CFFF04E000F065F8204600F063F8277772
:10103000280715D5300713D521686FF0080008611F
:10104000042020772068C0698007204602D0FFF77F
:10105000B7FF04E000F04DF8204600F04BF827778A
:10106000E80616D5F00614D521686FF01000086167
:10107000082020772068C06910F4407F204602D005
:10108000FFF79EFF04E000F034F8204600F032F84D
:101090002777E80708D0F00706D021686FF0010035
:1010A0000861204600F028F8280608D5300606D545
:1010B00021686FF0800008612046FFF725FF680671
:1010C00008D5700606D521686FF0400008612046FB
:1010D00000F01CF8A8060AD5B00608D521686FF004
:1010E000200008612046BDE8F041FFF70EBFBDE8D3
:1010F000F08170477047000000680349884201D1C1
:10110000FFF7B2BB7047000000080040704718B5F9
:10111000034690F84200202801D0022018BD61B19A
:101120005AB10120186300205863184600F03AFCB9
:101130000028F3D1196B012901D0012018BD1968CD
:101140000A684968009119680C3151E8002F42F093
:10115000100241E80024002CF5D118BD024A0120FC
:10116000107002480180704700000020020000203B
:1011700070470000F8B5016804460868CA684B6902
:1011800010F00F0F4FF0000559D003F0010602F4E4
:101190009077374365D0C10705D0D10503D5616C81
:1011A00041F001016164410705D5D90703D0616CA5
:1011B00041F002016164810705D5D90703D0616C54
:1011C00041F004016164010707D502F020013143B9
:1011D00003D0616C41F008016164616C00293AD070
:1011E000800604D5900602D5204600F01EFB20683C
:1011F0004069616CC0F38010090700D460B32046D9
:1012000000F0ECFA20684069400621D520681430CF
:1012100050E8001F21F0400140E80012002AF5D1FB
:10122000E06BA8B16D494163E06BFFF7AFF80028B0
:1012300011D0E06B416B01B0BDE8F0400847830678
:101240000FD593060DD52046BDE8F84000F0EDBA65
:101250002046FFF78DFFF8BD2046FFF789FF656444
:10126000F8BD266B2023012E7CD1C6067AD5D60682
:1012700078D508684868009048694FF00206400633
:1012800040D5E16B086840680004000CE8D0A28DEE
:101290008242E5D9E085886920282DD020680C306D
:1012A00050E8001F21F4807140E80012002AF5D1B7
:1012B0002068143050E8001F21F0010140E80012BE
:1012C000002AF5D12068143050E8001F21F04001B9
:1012D00040E80012002AF5D184F8423025632068E6
:1012E0000C3050E8001F21F0100140E80012002AE5
:1012F000F5D1E06BFFF726F86663A08DE18D401A0B
:1013000081B22AE0A08DE18D401A81B2E08D0028E3
:10131000A6D00029A4D022680C3252E8000F20F495
:10132000907042E80007002FF5D12068143050E893
:10133000002F22F0010240E80027002FF5D184F8A9
:101340004230256320680C3050E8002F22F0100254
:1013500040E80023002BF5D166632046FFF7FEFE30
:10136000F8BDFFE705062BD5150629D594F84100F1
:101370002128F5D1A068B0F5805F01D12069B0B116
:10138000206A411C2162216800784860E08C401E80
:101390000004000CE084E3D12068C16821F08001E2
:1013A000C1602068C16841F04001C160D8E7206A8F
:1013B0000088C0F308004860206A801C2062E5E7CE
:1013C0004006CDD55006CBD5CA68204622F0400253
:1013D000CA6084F8413000F0C6F8C1E7CD170008B4
:1013E00070B5040004D094F84100002510B106E067
:1013F000012070BD84F84050204600F023F82420DE
:1014000084F841002068C16821F40051C160204681
:1014100000F06CFA2068016921F4904101612068B4
:10142000416921F02A0141612068C16841F40051FD
:10143000C1606564202084F8410084F8420065633F
:10144000002070BD30B585B0002400940194029452
:1014500003940068184988422CD11848816941F4E6
:1014600080418161816901F480410491816941F089
:10147000040181618069124D00F0040004904FF472
:1014800000700090022001900320039069462846D6
:10149000FEF7D6FF2815CDE90004694628460294D8
:1014A000FEF7CEFF002202212520FFF76FFA25204C
:1014B000FFF75EFA05B030BD003801400010024071
:1014C0000008014070472DE9F843044690F84100B8
:1014D000984616460D46202802D00220BDE8F88323
:1014E00085B17EB100206064212084F84100FFF7BF
:1014F0009DF8A6848146E684A0682027B0F5805F29
:1015000002D003E00120E9E7206910B12E46002552
:101510000EE000260CE08021204600F05EFAA8B91B
:10152000C6B116F8010B21684860E08C401EE084CB
:10153000E08C4B464FF00002CDF800800028EAD145
:101540004FF04001204600F048FA40B184F8417065
:101550000320C3E735F8020BC0F30800E3E784F883
:1015600041700020BAE77047FEE7000070B586B012
:10157000002425480094019402940394816941F069
:1015800010018161816901F010010491816941F0CC
:1015900020018161816901F020010491816941F09C
:1015A00004018161816901F004010491816941F0C4
:1015B000080181618069154E00F008000490012245
:1015C0000E213046FFF72CF80E200125CDE900054D
:1015D0000320CDE9024069463046FEF731FF4FF463
:1015E000405000900A48CDE9010569460948FEF7D8
:1015F00027FF002202212820FFF7C8F92820FFF743
:10160000B7F906B070BD00000010024000080140AC
:1016100000002110000C01400D4810B50B4901607D
:101620000C49416000214FF480428160C0E90312FF
:1016300041618161C1610162FEF7FEFF002803D0B4
:10164000BDE81040FEF77CBE10BD00000054004015
:10165000B8000020A08601000D4810B50B490160BC
:101660000C49416000214FF480428160C0E90312BF
:1016700041618161C1610162FEF7DEFF002803D094
:10168000BDE81040FEF75CBE10BD000000580040F1
:101690000C010020A08601000C4810B50A49016029
:1016A0004FF4E1314160002181600C22C160C0E94A
:1016B00004128161C161FFF793FE002803D0BDE8E9
:1016C0001040FEF73DBE10BD003801406001002013
:1016D000FEE7FEE710B500F041FA012803D0BDE8AF
:1016E000104000F025BA10BD30B58FB028216846F3
:1016F000FEF7B6FD14210AA8FEF7B2FD0121080489
:10170000CDE900100024029402250491CDE9075090
:101710004FF4E01009906846FFF766FA08B172B618
:10172000FEE70F20CDE90A054FF48060CDE90C40BB
:1017300002210AA80E94FFF75BF9002801D072B6C7
:10174000FEE70FB030BD70470148FFF73ABC00001C
:10175000A8010020F0B50268194B1A4C1A4D4FF041
:101760008047984205D0B84203D0A04201D0A84299
:1017700003D122F070064A683243984205D0B8423D
:1017800003D0A04201D0A84203D122F44074CA6819
:1017900022434C6922F08002224302608A68C262BE
:1017A0000A688262984201D109690163012141619D
:1017B0000169C90703D0016921F001010161F0BD90
:1017C000002C0140000400400008004010B5406AB1
:1017D0000021C185C184FFF7CBFC10BD01680C312D
:1017E00051E8002F22F4907241E80023002BF5D13C
:1017F0000168143151E8002F22F0010241E8002372
:10180000002BF5D1016B012909D101680C3151E898
:10181000002F22F0100241E80023002BF5D12021F7
:1018200080F8421000210163704708B590F842101B
:10183000222901D0022008BD82684FF480539A42C9
:1018400001D1016921B1816A9A421BD04AB10AE0F3
:101850000268816A5268C2F308020A80816A891CA0
:1018600008E0026972B10268526802F07F020A70F1
:10187000816A491C8162C18D491E0904090CC18518
:1018800003D01BE002685268F1E70168CA6822F0E1
:101890002002CA600168CA6822F48072CA600168C6
:1018A0004A6922F001024A61202180F84210002199
:1018B0004163026B012A03D0FFF704FE002008BD3C
:1018C000016301680C3151E8002F22F0100241E859
:1018D0000023002BF5D101680A68D20602D50A68F8
:1018E00049680091818DFFF739FCE7E770B5044640
:1018F00000680169E26821F44051114301612169E6
:10190000A0680843616908432168CA6841F20C6312
:101910009A430243CA6020684169A26921F4407178
:10192000114341611E492068884202D1FFF726F920
:1019300001E0FFF713F900EBC00101EB0012606852
:1019400064218000B2FBF0F3B3FBF1F36FF01806F3
:101950007343B2FBF0F5B2FBF0F605EB83053223DF
:1019600003EB0515B5FBF1F5B6FBF1F605F0F00557
:1019700005EB0615B2FBF0F6B2FBF0F0B0FBF1F0B0
:101980006FF01802504306EB800003EB0010B0FB31
:10199000F1F0216800F00F002844886070BD00005D
:1019A0000038014081628285C28500214164222184
:1019B00080F84210016921B10168CA6842F480725E
:1019C000CA6001684A6942F001024A610068C16860
:1019D00041F02001C160002070472DE9F84398468E
:1019E00017460D460446089E24E0701C22D0FEF7E0
:1019F0001DFEA0EB0800B0421AD8CEB12068C16825
:101A0000490717D5802D15D0402D13D00168C94343
:101A100009070FD401680025406800902046FFF7B1
:101A2000DDFE0820606484F840500120BDE8F883A2
:101A30000320FBE72068006835EA000004D000209E
:101A4000B842D2D00020F1E70120F9E70148FFF7C2
:101A500091BB000060010020FEE70907090E002885
:101A600004DB00F1E02080F80014704700F00F0064
:101A700000F1E02080F8141D70470000FEF7FCFE26
:101A8000FFF732FEFFF772FDFFF7E6FDFFF7C4FD3B
:101A9000FFF702FE0025094C6E1E64220849094822
:101AA000FFF735FB20780028F7D0334662880449D9
:101AB0000448FFF708FD2570EFE700000000002054
:101AC00054000020600100200548416B096821B1E5
:101AD000416BC9680968816270474FF0FF31FAE7CE
:101AE0001400002010490A6B01F11C0012B1012101
:101AF000016070470022026008690C4AB0FA80F069
:101B0000C0F11F0000EB800002EB800000F1080331
:101B10004268526842609A4201D1C2684260D0680D
:101B2000086008687047000014000020F0010020E1
:101B300010B5BF2080F31188BFF34F8FBFF36F8FB5
:101B400000F01AF818B104494FF0805008600020E6
:101B500080F3118810BD000004ED00E005484169E4
:101B600019B1006B18B100207047012070470220A6
:101B700070470000140000202DE9F041464C00267B
:101B8000206B28B1A069401CA0613046BDE8F081FF
:101B9000E5686D1CE56008D1606BA16B6163A063B3
:101BA000206A401C2062FFF78FFFA16A3B488D42EC
:101BB0000FD34FF0000E616B096839B1616BC968D2
:101BC000C9684A68954214D2A26202E04FF0FF3120
:101BD000A1622168C96A01EB810150F82100012846
:101BE00000D901262C481C3000680028CDD00126E1
:101BF000CBE7D1E902724B69BA60D1E902277A607A
:101C00005F680A1D974201D1CF685F60C1F814E098
:101C10001F687F1E1F60D1F828C0BCF1000F15D0CF
:101C2000D1E907379F60D1E907377B60DCF80470A2
:101C300001F118039F4202D10B6ACCF80430C1F8BD
:101C400028E0DCF800305B1ECCF80030CB6A0127BE
:101C5000D4F810C09F4047EA0C07276103EB8303C9
:101C600000EB83035B688B609F68CF609F687A603E
:101C70009A60CA6A02EB820200EB82034B6150F861
:101C800022305B1C40F82230C96A2268D26A914235
:101C900091D901268FE7000014000020F0010020F8
:101CA000010202030405060708090A0B0C0D0E0FBA
:101CB00010100000000000000000010203040607ED
:101CC000080900000000010203040000EC1C0008E9
:101CD000000000205400000028010008401D0008FA
:101CE00054000020C4080000440100080000000067
:101CF00001000000100000000000000000127A0047
:101D000000000000000000000000000000000000D3
:101D100000000000000000000000000000000000C3
:101D200000000000000000000000000004000000AF
:101D300000000000000000000000000000000000A3
:04000005080000ED02
:00000001FF
