:020000040800F2
:10000000D84A002099010008E3160008E11300080F
:10001000E116000831020008911B000800000000F2
:1000200000000000000000000000000001010008C6
:100030003302000800000000450100085D170008B9
:10004000B3010008B3010008B3010008B3010008C0
:10005000B3010008B3010008B3010008B3010008B0
:10006000B3010008B3010008B3010008B3010008A0
:10007000B3010008B3010008B3010008B301000890
:10008000B3010008B3010008B3010008B301000880
:10009000B3010008B3010008B3010008B301000870
:1000A000B3010008B3010008B3010008B301000860
:1000B000D1170008B3010008DD170008B3010008DC
:1000C000B3010008B3010008B3010008B301000840
:1000D000B3010008851B0008B3010008B301000844
:1000E000B3010008B3010008B3010008DFF80CD029
:1000F00000F08CF800480047511F0008D84A002043
:10010000224B19680868B0E8F00F80F30988BFF344
:100110006F8F4FF0000080F311884EF00D0E704786
:100120000000000006480068006880F3088862B696
:1001300061B6BFF34F8FBFF36F8F00DF00BF00BF0B
:1001400008ED00E0EFF30980BFF36F8F0F4B1A68E3
:1001500020E9F00F106008B54FF0500080F31188CF
:10016000BFF34F8FBFF36F8F02F0F0FA4FF0000034
:1001700080F31188BDE8084019680868B0E8F00FFE
:1001800080F30988BFF36F8F704700BF44000020E1
:10019000EFF3058070470000064880470648004797
:1001A000FEE7FEE7FEE7FEE7FEE7FEE7FEE7FEE727
:1001B000FEE7FEE7CF170008ED000008D2B201E02D
:1001C00000F8012B491EFBD270470022F6E710B55C
:1001D00013460A4604461946FFF7F0FF204610BDB5
:1001E00030B50B46014600202022012409E021FA07
:1001F00002F59D4205D303FA02F5491B04FA02F504
:100200002844151EA2F10102F1DC30BD064C074D59
:1002100006E0E06840F0010394E8070098471034D6
:10022000AC42F6D3FFF766FFF42A0008142B00084F
:10023000FEE7704772B6FEE71CB507490120CDE91D
:1002400000010023802205A1074802F0D3FABDE88F
:100250001C4002F0EBB900000400002053746172EE
:10026000745F5461736B0000E516000810B590F8D8
:1002700021100022022905D00421816380F820206A
:10028000012010BD01680B6823F00E030B600168AC
:100290000B6823F001030B6090F84030C46B012120
:1002A00001FA03F3636080F8211080F820201046E3
:1002B00010BD000010B590F821100024022903D0D1
:1002C0000421816301243DE001680A6822F00E02E6
:1002D0000A6001680A6822F001020A601A4A01688D
:1002E000914201D1012121E0174A1432914201D1FA
:1002F00010211BE0144A2832914201D1891515E0E2
:10030000114A3C32914201D189140FE00E4A503219
:10031000914202D14FF4803108E00B4A643291429D
:1003200002D14FF4801101E04FF08071064A083A83
:100330005160012180F82110002180F82010416BCC
:1003400001B18847204610BD080002402DE9F84F52
:10035000DFF8B8910024A9F1040B23460F2709F117
:10036000040AABF1040EC9E00125A5402A40AA42C7
:100370007DD1674ED1F804C0ACEB0608B44532D04D
:1003800014DCBCF1030F3AD009DCBCF1000F2AD019
:10039000BCF1010F1CD0BCF1020F31D11DE0BCF14A
:1003A000110F17D0BCF1120F2AD119E0B8F5881F30
:1003B00019D006DCB8F5803F15D0B8F5801F1FD1E5
:1003C00011E0B8F5001F0ED0B8F5041F18D10AE0EF
:1003D000CB6815E0CB681B1D12E0CB6808330FE03B
:1003E000CB680C330CE08B682BB1012B4FF008036A
:1003F00003D0456104E0042302E0056100E000232E
:10040000FF2A01D8064601E000F104064FEA840500
:1004100001D9A5F12005D6F8008007FA05FC28EAE5
:100420000C0803FA05F548EA0508C6F800804D688F
:10043000ED0062D5374DAE6946F00106AE61AD699B
:1004400024F0030605F001050095334D06EB050C7D
:10045000DCF80850A607360F07FA06F825EA080563
:10046000DFF8B880404503D14FF0000817E044E0C2
:10047000DFF8AC80404502D14FF001080FE0DFF813
:10048000A480404502D14FF0020808E0DFF89880D0
:10049000404502D14FF0030801E04FF0040808FA8C
:1004A00006F848EA0508CCF808804D68D9F80060DD
:1004B000ED024D4601D5164300E096432E604D688F
:1004C000DAF80060AD02554601D5164300E09643C8
:1004D0002E604D68DBF80060AD035D4601D5164324
:1004E00000E096432E604D68DEF80060ED0375462F
:1004F00001D5164300E096432E60641C0D682A4621
:10050000E5407FF431AFBDE8F88F000008040140FA
:1005100000001110001002400000014000080140DE
:10052000000C0140001001400014014080680840A8
:1005300000D0012070470AB1016170470904FBE750
:10054000014880687047000014000020024881685C
:10055000027811448160704714000020074810B5EC
:10056000016841F010010160032000F0A1F80120B2
:1005700000F006F800F050F8002010BD0020024006
:1005800030B505461F4887B0C16941F00401C1611B
:10059000C06906A900F00400009001A800F030F93D
:1005A0000498B0B100F04CF940001749174AB0FB6D
:1005B000F1F11748491E0260416040F2E732002124
:1005C000C0E903218160816100F046FB040003D093
:1005D00015E000F035F9E8E70D4800F093FB040062
:1005E0000DD11E2000F036F8102D07D2002229462A
:1005F0001E2000F03DF80748056000E0012407B028
:10060000204630BD0010024040420F00000800406C
:10061000C4010020180000200C4808B5816941F091
:1006200001018161816901F001010091C16941F01D
:100630008051C161C06900F0805000900448416859
:1006400021F0E06141F00071416008BD00100240FE
:1006500000000140002809DB00F01F020121914049
:100660004009800000F1E020C0F800117047000050
:10067000F0B40E4B1B680C46C3F30223C3F107050D
:10068000042D00D90425191D072901D2002300E0FB
:10069000DB1E012606FA05F1491E214099409E40C5
:1006A000761E16403143F0BC01F084BA0CED00E038
:1006B000064900F0070208684FF6FF03184040EAB9
:1006C0000220034A10430860704700000CED00E070
:1006D0000000FA052DE9F0470F46050061D0434EB2
:1006E000306800F00700B84209D2306820F00700F7
:1006F00038433060306800F00700B84251D12868B4
:100700003B4C810712D5400703D5606840F4E06098
:1007100060602878000703D5606840F4605060602E
:100720006068A96820F0F000084360602878C0077E
:1007300028D06868012810D02168022810D08907C5
:1007400000292EDA616821F0030101436160FFF79F
:10075000F7FE804641F288390DE021688903EFE712
:100760008901EDE7FFF7ECFEA0EB0801494502D94E
:100770000320BDE8F0876068696800F00C00B0EB0A
:10078000810FEFD1306800F00700B8420BD9306814
:1007900020F0070038433060306800F00700B842AE
:1007A00001D00120E5E72878400705D56068E968B1
:1007B00020F4E060084360602878000706D5606890
:1007C000296920F4605040EAC100606000F058F8E8
:1007D0006168084AC1F30311515CC84006490860CA
:1007E00006480068FFF7CCFE0020C2E70020024068
:1007F00000100240DA2A0008200000201800002023
:100800000F2202600C4A536803F0030343605368ED
:1008100003F0F0038360536803F4E063C36052683D
:100820004FF4E06303EAD20202610448006800F07A
:1008300007000860704700000010024000200240DE
:100840000448054900684968044AC1F30221515C23
:10085000C84070472000002000100240EA2A00082B
:100860000448054900684968044AC1F3C221515C43
:10087000C84070472000002000100240EA2A00080B
:100880000E4A51680E4801F00C03042B11D0082BBE
:100890000FD10C48C1F38343C903C05C0AD551682A
:1008A000084AC1F34041921E515C054A5043B0FBD7
:1008B000F1F07047044948437047000000100240BF
:1008C00000127A00CA2A000800093D002DE9F84FFD
:1008D000040070D02078C04DC00749D06868C0F3CC
:1008E0008100012807D06868C0F38100022809D17F
:1008F0006868C00306D52868800339D56068002879
:10090000E7D035E06068B0F5803F0BD010B1B0F5AE
:10091000A02F11D0286820F480302860286820F4A7
:10092000802002E0286840F480302860606890B140
:10093000FFF706FE06460AE0286840F4802028609B
:10094000F0E700BFFFF7FCFD801B642873D8286820
:100950008003F7D50CE0FFF7F3FD064605E000BF86
:10096000FFF7EEFD801B6428F0D828688003F7D4D9
:1009700020789A4E80074FF001094FF0000839D5D2
:10098000686810F00C0F07D06868C0F38100022877
:1009900009D16868C00306D42868800714D5206987
:1009A000012808D110E02069B0B1C6F80090FFF727
:1009B000C7FD074605E00AE1FFF7C2FDC01B02289C
:1009C000C4D828688007F7D52868616920F0F80046
:1009D00040EAC10028600DE0C6F80080FFF7B0FDD6
:1009E000074604E0FFF7ACFDC01B022823D82868A7
:1009F0008007F7D4207800072CD57948A169D9B1B0
:100A0000C0F80090FFF79CFD074604E0FFF798FD53
:100A1000C01B02280FD8686A8007F7D571484FF4C9
:100A2000FA510068B0FBF1F0009000BF0098411E41
:100A30000091FAD20EE080E0C0F80080FFF780FD60
:100A4000074604E0FFF77CFDC01B022875D8686AE2
:100A50008007F7D42078400760D5E8690027C000F8
:100A600008D4E86940F08050E861E869012700F0A7
:100A7000805000905C480168C90513D40168834622
:100A800041F480710160FFF75BFD824606E000BF24
:100A9000FFF756FDA0EB0A0064284ED8DBF80000F3
:100AA000C005F5D5E06801280AD008B1052813D0A3
:100AB000286A20F001002862286A20F0040002E081
:100AC000286A40F001002862E06841F2883B98B152
:100AD000FFF736FD82460BE0286A40F004002862EA
:100AE000EEE700BFFFF72CFDA0EB0A0159455AD8ED
:100AF000286A8007F6D50CE0FFF722FD824605E064
:100B0000FFF71EFDA0EB0A0159454CD8286A800763
:100B1000F6D41FB1E86920F08050E861E06988B33D
:100B20006968C1F38101022944D00228C6F86080B7
:100B300004D0FFF705FD044638E034E0FFF700FD80
:100B4000074604E0FFF7FCFCC01B02282BD82868EE
:100B50008001F7D4206AB0F5803F05D16868A168AC
:100B600020F4003008436860D4E90801084369684C
:100B700021F4741108436860C6F86090FFF7E0FC48
:100B8000044606E025E000BFFFF7DAFC001B022860
:100B900009D828688001F7D51BE000BFFFF7D0FC1B
:100BA000001B022802D90320BDE8F88F28688001C5
:100BB000F4D40EE00128F7D06868226A00F480318E
:100BC000914204D1616A00F47010884201D0012082
:100BD000EAE70020E8E7000000100240000042427F
:100BE000800442422000002000700040704770479F
:100BF00070B590F83C20012A26D0012480F83C40B2
:100C0000022280F83D2003685A689D6822F0700631
:100C10000A6832435A600D4B02689A4208D0B2F11A
:100C2000804F05D00A4B9A4202D00A4B9A4204D117
:100C3000496825F080031943916080F83D40002108
:100C400080F83C10084670BD022070BD002C0140A9
:100C5000000400400008004010B5040003D094F8E0
:100C60003D0010B107E0012010BD002084F83C00D9
:100C7000204600F01FF8022084F83D00211D206866
:100C800000F0B2FD012084F8460084F83E0084F8AC
:100C90003F0084F8400084F8410084F8420084F862
:100CA000430084F8440084F8450084F83D000020A7
:100CB00010BD000008B5114A01681148914208D1E1
:100CC000816941F400618161806900F400600090F5
:100CD00008BDB1F1804FFBD1C16941F00101C16193
:100CE000C069002200F00100009006211C20FFF7DF
:100CF000BFFCBDE808401C20FFF7ACBC002C014045
:100D00000010024090F83D10012901D001207047E9
:100D1000022180F83D100168CA6842F00102CA60F1
:100D200000680B49884208D0B0F1804F05D00949CE
:100D3000884202D00849884204D1816801F0070145
:100D4000062903D0016841F00101016000207047CD
:100D5000002C0140000400400008004070B504462B
:100D600090F83C000025012817D0012684F83C604B
:100D7000022084F83D002068826822F0770222F485
:100D80007F4282600868502838D00DDC20284FD080
:100D900005DC90B3102811D14AE0022070BD302844
:100DA00046D040280AD13BE060282FD070280DD0D3
:100DB000B0F5805F03D0B0F5005F12D0012584F854
:100DC0003D60002084F83C00284670BDCB68D1E926
:100DD0000121206800F044FD2068816841F077011E
:100DE00009E0CB68D1E90121206800F039FD2068D5
:100DF000816841F480418160E1E719E0CA6849688F
:100E0000206800F03FFD5021206806E0CA6849686C
:100E1000206800F048FD6021206800F02BFDCEE73F
:100E2000CA684968206800F02DFD40212068F4E779
:100E3000226801461046F0E770472DE9F04104466C
:100E40000068C66805694FF00007A90713D5B10708
:100E500011D5F91E01610120207720688069800783
:100E6000204602D0FFF7E8FF04E000F07EF82046BD
:100E700000F07CF82777680716D5700714D521682D
:100E80006FF004000861022020772068806910F468
:100E9000407F204602D0FFF7CFFF04E000F065F866
:100EA000204600F063F82777280715D5300713D5BB
:100EB00021686FF008000861042020772068C0696D
:100EC0008007204602D0FFF7B7FF04E000F04DF89E
:100ED000204600F04BF82777E80616D5F00614D523
:100EE00021686FF010000861082020772068C06931
:100EF00010F4407F204602D0FFF79EFF04E000F090
:100F000034F8204600F032F82777E80708D0F007D9
:100F100006D021686FF001000861204600F028F833
:100F2000280608D5300606D521686FF080000861D4
:100F30002046FFF75BFE680608D5700606D52168D7
:100F40006FF040000861204600F01CF8A8060AD5A2
:100F5000B00608D521686FF0200008612046BDE882
:100F6000F041FFF744BEBDE8F081704770470000D4
:100F700000680349884201D1FFF7E8BA70470000D2
:100F800000080040704718B5034690F8420020283A
:100F900001D0022018BD61B15AB1012018630020B0
:100FA0005863184600F09AFD0028F3D1196B012907
:100FB00001D0012018BD19680A68496800911968B4
:100FC0000C3151E8002F42F0100241E80024002CBF
:100FD000F5D118BD024A0120107002480180704707
:100FE000000000200200002070470000F8B50168F2
:100FF00004460868CA684B6910F00F0F4FF00005EF
:1010000059D003F0010602F49077374365D0C10749
:1010100005D0D10503D5616C41F001016164410740
:1010200005D5D90703D0616C41F0020161648107E5
:1010300005D5D90703D0616C41F004016164010753
:1010400007D502F02001314303D0616C41F0080163
:101050006164616C00293AD0800604D5900602D5FF
:10106000204600F07EFC20684069616CC0F380106F
:10107000090700D460B3204600F04CFC20684069AA
:10108000400621D52068143050E8001F21F04001AF
:1010900040E80012002AF5D1E06BA8B16D49416328
:1010A000E06BFFF707F9002811D0E06B416B01B04E
:1010B000BDE8F040084783060FD593060DD52046BE
:1010C000BDE8F84000F04DBC2046FFF78DFFF8BDAD
:1010D0002046FFF789FF6564F8BD266B2023012EAB
:1010E0007CD1C6067AD5D60678D5086848680090BF
:1010F00048694FF00206400640D5E16B0868406839
:101100000004000CE8D0A28D8242E5D9E085886910
:1011100020282DD020680C3050E8001F21F4807169
:1011200040E80012002AF5D12068143050E8001F72
:1011300021F0010140E80012002AF5D120681430A6
:1011400050E8001F21F0400140E80012002AF5D1CC
:1011500084F84230256320680C3050E8001F21F0ED
:10116000100140E80012002AF5D1E06BFFF77EF88D
:101170006663A08DE18D401A81B22AE0A08DE18DD9
:10118000401A81B2E08D0028A6D00029A4D02268A0
:101190000C3252E8000F20F4907042E80007002F54
:1011A000F5D12068143050E8002F22F0010240E809
:1011B0000027002FF5D184F84230256320680C30D9
:1011C00050E8002F22F0100240E80023002BF5D158
:1011D00066632046FFF7FEFEF8BDFFE705062BD548
:1011E000150629D594F841002128F5D1A068B0F55D
:1011F000805F01D12069B0B1206A411C2162216861
:1012000000784860E08C401E0004000CE084E3D1CC
:101210002068C16821F08001C1602068C16841F088
:101220004001C160D8E7206A0088C0F30800486028
:10123000206A801C2062E5E74006CDD55006CBD55C
:10124000CA68204622F04002CA6084F8413000F0AB
:10125000C6F8C1E70519000870B5040004D094F879
:101260004100002510B106E0012070BD84F8405017
:10127000204600F023F8242084F841002068C1684B
:1012800021F40051C160204600F0CCFB20680169C8
:1012900021F4904101612068416921F02A014161F6
:1012A0002068C16841F40051C1606564202084F861
:1012B000410084F842006563002070BD30B585B000
:1012C0000024009401940294039400681849884211
:1012D0002CD11848816941F480418161816901F410
:1012E00080410491816941F0040181618069124D5E
:1012F00000F0040004904FF4007000900220019070
:101300000320039069462846FFF720F82815CDE909
:101310000004694628460294FFF718F800220421C9
:101320002520FFF7A5F92520FFF794F905B030BD7A
:1013300000380140001002400008014070472DE9CC
:10134000F843044690F84100984616460D4620287A
:1013500002D00220BDE8F88385B17EB10020606430
:10136000212084F84100FFF7EBF8A6848146E6844B
:10137000A0682027B0F5805F02D003E00120E9E7F4
:10138000206910B12E4600250EE000260CE08021D9
:10139000204600F0BEFBA8B9C6B116F8010B2168C3
:1013A0004860E08C401EE084E08C4B464FF0000229
:1013B000CDF800800028EAD14FF04001204600F02F
:1013C000A8FB40B184F841700320C3E735F8020B55
:1013D000C0F30800E3E784F841700020BAE77047E3
:1013E000FEE700000EA000F0D5FB0E4C00F020F848
:1013F00001280CD00228F9D101F01CF80AA000F055
:10140000C9FBA06801F046F901F022F8EEE701F00F
:1014100011F806A000F0BEFBA06801F0BDF8F3E7EC
:101420004B45590000000020320000003100000050
:1014300070B5164D4FF48056002431462846FFF70C
:1014400075F860B9142001F03BF831462846FFF7E3
:101450006DF80028F9D0142001F032F801244FF47F
:10146000005631462846FFF761F860B9142001F0B4
:1014700027F831462846FFF759F80028F9D01420FC
:1014800001F01EF80224204670BD0000000C01404F
:10149000094B012808D0022809D003280AD10122CB
:1014A00008211846FFF747B801220221F9E7012277
:1014B0000421F6E77047000000080140094B0128AD
:1014C00008D0022809D003280AD100220821184692
:1014D000FFF731B800220221F9E700220421F6E7E4
:1014E000704700000008014070B501244FF4FA7500
:1014F0002046FFF7E3FF284600F0E2FF2046FFF713
:10150000C7FF284600F0DCFF641CE4B2032CEFD9CF
:1015100070BD000070B586B0002429480094019485
:1015200002940394816941F010018161816901F0A5
:1015300010010491816941F020018161816901F00C
:1015400020010491816941F004018161816901F008
:1015500004010491816941F0080181618069194E9B
:1015600000F00800049001220E213046FEF7E3FF50
:101570000E2000900125CDE9015403246946304630
:101580000394FEF7E3FE200300900F48CDE9010528
:101590000E4D69462846FEF7D9FE20020090122023
:1015A0000190694603942846FEF7D0FE084841683A
:1015B00041F0E06141F00201416006B070BD000001
:1015C000001002400008014000002110000C014002
:1015D0000000014010B586B0002418480094019422
:1015E00002940394049414490594016041F61F4148
:1015F000C0E9011442F20F71C0E90314446184612F
:10160000FFF72AFB08B1FEF715FE4FF4805000905B
:1016100069460A48FFF7A2FB08B1FEF70BFE0494E7
:1016200004A906480594FFF7E3FA002801D0FEF765
:1016300001FE06B010BD0000002C0140EC000020AF
:1016400010B586B0002417480094019402940394C6
:1016500004944FF080410594016041F61F41C0E9B8
:10166000011442F20F71C0E903148461FFF7F4FA28
:1016700008B1FEF7DFFD4FF480500090694609483D
:10168000FFF76CFB08B1FEF7D5FD049404A90548EB
:101690000594FFF7ADFA002801D0FEF7CBFD06B0A8
:1016A00010BD0000340100200C4810B50A4901604B
:1016B0004FF4E1314160002181600C22C160C0E93A
:1016C00004128161C161FFF7C7FD002803D0BDE8A6
:1016D0001040FEF7AFBD10BD003801407C01002076
:1016E000FEE7FEE71CB500F0A5FE12480324CDE995
:1016F00000400023802210A1124801F07BF80D4821
:101700000023001DCDE9004080220FA10F4801F009
:1017100071F8084800230830CDE9004080220CA170
:101720000D4801F067F800F093FEBDE81C40002072
:1017300000F0DEBE080000205461736B4C65644FFE
:101740006E000000CB1800084B455900E513000857
:101750005541525445780000D118000810B501F0E9
:1017600077F8012803D0BDE8104001F02DB810BD76
:1017700030B58FB028216846FEF727FD14210AA84E
:10178000FEF723FD01210804CDE900100024029496
:1017900002250491CDE907504FF4E0100990684606
:1017A000FFF794F808B172B6FEE70F20CDE90A05FD
:1017B0004FF48060CDE90C4002210AA80E94FEF798
:1017C00089FF002801D072B6FEE70FB030BD704728
:1017D0000148FFF732BB0000340100200148FFF749
:1017E0002CBB0000C4010020F0B50268194B1A4C54
:1017F0001A4D4FF08047984205D0B84203D0A0421E
:1018000001D0A84203D122F070064A6832439842C0
:1018100005D0B84203D0A04201D0A84203D122F49F
:101820004074CA6822434C6922F08002224302605D
:101830008A68C2620A688262984201D109690163BA
:10184000012141610169C90703D0016921F001014A
:101850000161F0BD002C0140000400400008004080
:1018600010B5846842EA032224F47F440A432243E9
:10187000826010BD826822F070020A4342F00701C4
:101880008160704710B5036A046A24F001040462A1
:10189000846924F0F00444EA021423F00A020A43A3
:1018A0008461026210BD10B5036A046A24F010045A
:1018B0000462846923F0A00324F4704444EA0232F1
:1018C00043EA01118261016210BDFFF70DFEFCE7E2
:1018D000094C00254FF47A76642208490848FFF73E
:1018E00052FB20780028F7D0334662880349044829
:1018F000FFF725FD2570EFE700000020880000209D
:101900007C01002010B5406A0021C185C184FFF729
:101910006BFB10BD01680C3151E8002F22F490726E
:1019200041E80023002BF5D10168143151E8002F64
:1019300022F0010241E80023002BF5D1016B0129BF
:1019400009D101680C3151E8002F22F0100241E862
:101950000023002BF5D1202180F8421000210163E3
:10196000704708B590F84210222901D0022008BD26
:1019700082684FF480539A4201D1016921B1816A92
:101980009A421BD04AB10AE00268816A5268C2F3E7
:1019900008020A80816A891C08E0026972B1026843
:1019A000526802F07F020A70816A491C8162C18D0F
:1019B000491E0904090CC18503D01BE00268526866
:1019C000F1E70168CA6822F02002CA600168CA68AB
:1019D00022F48072CA6001684A6922F001024A61F9
:1019E000202180F8421000214163026B012A03D0BC
:1019F000FFF7A4FC002008BD016301680C3151E829
:101A0000002F22F0100241E80023002BF5D10168DD
:101A10000A68D20602D50A6849680091818DFFF7ED
:101A2000D9FAE7E770B5044600680169E26821F475
:101A30004051114301612169A0680843616908436D
:101A40002168CA6841F20C639A430243CA60206865
:101A50004169A26921F44071114341611E49206826
:101A6000884202D1FEF7FCFE01E0FEF7E9FE00EB42
:101A7000C00101EB0012606864218000B2FBF0F34A
:101A8000B3FBF1F36FF018067343B2FBF0F5B2FB52
:101A9000F0F605EB8305322303EB0515B5FBF1F5F5
:101AA000B6FBF1F605F0F00505EB0615B2FBF0F616
:101AB000B2FBF0F0B0FBF1F06FF01802504306EB10
:101AC000800003EB0010B0FBF1F0216800F00F0084
:101AD0002844886070BD0000003801408162828522
:101AE000C28500214164222180F84210016921B1A0
:101AF0000168CA6842F48072CA6001684A6942F0AB
:101B000001024A610068C16841F02001C160002003
:101B100070472DE9F843984617460D460446089E3F
:101B200024E0701C22D0FEF70BFDA0EB0800B042B1
:101B30001AD8CEB12068C168490717D5802D15D0B5
:101B4000402D13D00168C94309070FD4016800254F
:101B5000406800902046FFF7DDFE0820606484F8AE
:101B600040500120BDE8F8830320FBE720680068AF
:101B700035EA000004D00020B842D2D00020F1E7BE
:101B80000120F9E70148FFF731BA00007C0100208D
:101B9000FEE700000FB4054B10B503A9044A0298F4
:101BA00000F028F810BC5DF814FB0000391F000895
:101BB000840000200907090E002804DB00F1E02062
:101BC00080F80014704700F00F0000F1E02080F86A
:101BD000141D704702E008C8121F08C1002AFAD17C
:101BE00070477047002001E001C1121F002AFBD19D
:101BF000704700002DE9FF4F8BB088460546002650
:101C000006E025280BD0DDE90D1290476D1C761CEF
:101C100028780028F5D10FB03046BDE8F08F0024B9
:101C2000A146A2460122AE4900E0044315F8013F57
:101C3000203B02FA03F00842F7D128782A2810D076
:101C40006FF02F022878A0F13001092915D809EB8F
:101C5000890102EB410144F0020400EB01096D1C13
:101C6000F0E758F8041B5FEA010903D544F4005477
:101C7000C9F1000944F002046D1C28782E2817D100
:101C800015F8010F44F004042A280ED06FF02F023B
:101C90002878A0F1300109290AD80AEB8A0102EB61
:101CA000410100EB010A6D1CF2E758F804AB6D1C12
:101CB00028786C280FD006DC4C2817D068280DD067
:101CC0006A2814D104E0742810D07A280FD10DE0CE
:101CD00044F400140AE044F4801401E044F4401495
:101CE0006978814202D104F580146D1C6D1C28783E
:101CF000692865D006DC00288DD0632827D06428A9
:101D000006D15DE06E2808D073282AD0752877D0D8
:101D1000DDE90D129047761CE0E0C4F30250022882
:101D200009D003280DD0D8F8001004280DD00E607B
:101D300008F10408D2E0D8F80010F217C1E90062F7
:101D4000F6E7D8F800100E80F2E70E70F0E718F80A
:101D5000041B8DF8001000208DF80100EB460120D7
:101D600003E058F804BB4FF0FF3061074FF0000765
:101D700001D40AE07F1C57450DDA8742FADB1BF8D5
:101D800007100029F6D106E07F1C8742FCDB1BF818
:101D900007100029F8D1DDE90D23A9EB07008146E2
:101DA000214600F0B1F83044C61904E0DDE90D1217
:101DB0001BF8010B90477F1EF8D22146484688E069
:101DC00058F8040BC4F302514FF00A0B032900D159
:101DD00000B2042900D140B2002802DA40422D218D
:101DE00002E0210505D52B218DF82410012104E006
:101DF00006E0E10710D02021F6E708AF089113E0D4
:101E000058F8040BC4F302514FF00A0B032900D118
:101E100080B2042900D1C0B20021EEE75946FEF796
:101E2000DFF9303107F8011D0028F7D1ADEB0700CD
:101E300000F1200B600702D524F4803401E04FF05C
:101E4000010ADA4502DDAAEB0B0000E00020824621
:101E500000EB0B0108980144A9EB01000A90E00394
:101E600006D4DDE90D2321460A9800F04DF806441A
:101E70004FF0000908E009A911F80900DDE90D1289
:101E8000904709F10109761C08998945F3DBE003C5
:101E90000CD5DDE90D2321460A9800F035F80644FB
:101EA00004E0DDE90D1230209047761CBAF1000104
:101EB000AAF1010AF5DC05E0DDE90D1217F8010BC6
:101EC0009047761CBBF10001ABF1010BF4DC0A98E2
:101ED0002146DDE90D2300F005F806446D1C97E668
:101EE000092801002DE9F041044600251E46174649
:101EF000880404D405E039462020B0476D1C641ED8
:101F0000F9D52846BDE8F0812DE9F04104460025C9
:101F10001E469046C80301D5302700E020278804DC
:101F200004D505E041463846B0476D1C641EF9D51E
:101F30002846BDE8F081000013B54FF47A73012202
:101F400069460248FFF7FBF900981CBD7C010020A0
:101F5000FEF704FBFFF70CFCFFF7DCFAFFF7A4FB2E
:101F6000FFF738FBFFF76CFBFEF766F901A0FFF700
:101F700011FEFEE773746172740A00002DE9F047E8
:101F8000204C0F460546E668D4F83490D4F83880E3
:101F90002068001D00F00AFA38B9206890F82C106B
:101FA00001208840216981432161681C15D1A7B1B6
:101FB000154922684868906023688268DA60226860
:101FC0008368121D5A602268121D82602068416178
:101FD0000868401C0860BDE8F08720683544B542B9
:101FE0004560216805D24046BDE8F047091D00F074
:101FF000FDB94846091D00F0F9F9A06A8542EAD208
:10200000A562E8E744000020C04600202DE9F04129
:10201000054600F00FFA364CA068401CA06020680E
:10202000344F10B1606940B32DE02560A0680128ED
:1020300029D1002606EB860007EB800000F0C8F9E6
:10204000761C052EF6D32B48643000F0C1F92948E0
:10205000783000F0BDF927488C3000F0B9F92548F8
:10206000A03000F0B5F92348B43000F0B1F92148B0
:10207000643060631430A06305E02068E96AC06AD8
:10208000884200D82560606A401C60626864E96A22
:102090000120226988401043206101EB810007EB99
:1020A00080004068A8608168E9608268291D5160ED
:1020B0008160E86A00EB800007EB8001696157F8F6
:1020C0002010491C47F8201000F0C2F96069002870
:1020D0000CD02068E96AC06A884207D206494FF0EE
:1020E00080500860BFF34F8FBFF36F8FBDE8F08162
:1020F000440000200C46002004ED00E070B50C4CBC
:102100000C4E11E000F096F9F068C568281D00F04B
:102110004DF9A068401EA0606068401E606000F03D
:1021200097F9284600F008F860680028EAD170BDE9
:1021300044000020AC46002010B50446006B00F0BF
:1021400091F92046BDE8104000F08CB90E484FF4DC
:102150008841420706D0C01D0B4920F00700411AF4
:10216000C1F58841094A00230144C2E90003083946
:10217000143A21F0070111604B600B600B1AC0E9A3
:1021800000139360536070470C0200203800002059
:10219000074C4FF08056074DFFF7B0FF206801282D
:1021A000FAD92E60BFF34F8FBFF36F8FF4E70000B3
:1021B0000C46002004ED00E02DE9F0470D46DDE976
:1021C00009841746824691009946089EA522206BF5
:1021D000FDF7F4FF6FF00301206B01EB870108446A
:1021E00020F0070765B100202218295C82F834101E
:1021F000295C11B1401C1028F6D3002084F843005C
:10220000052E00D30426201DE66200F0ECF804F150
:10221000180000F0E8F82461C6F105006462A061CE
:102220004A465146384600F0AFF82060B8F1000F3A
:1022300001D0C8F80040BDE8F087000030B5114972
:1022400000E011460A688242FBD34B685C18844266
:1022500003D1406818444860084643681C189442FB
:1022600009D1084C143C2468A24209D052681A448F
:1022700042600A6812680260814200D0086030BD86
:102280000460F9E7380000200548416B096821B176
:10229000416BC9680968816270474FF0FF31FAE706
:1022A00044000020502080F31188BFF34F8FBFF30C
:1022B0006F8FFEE7084B426900219A420AD1826A79
:1022C000283B9A4206D02AB990F8500001210128F3
:1022D00000D1002108467047C04600202DE9F0419A
:1022E00004004FF000060FD014F1090F0BD808348A
:1022F000600709D004F00700C0F10800C1438C4218
:1023000001D8044400E0002400F018FA1D4D2868AC
:1023100008B9FFF71BFF002C2FDD6B689C422CD8FF
:10232000184814300146096801E0084611464A6819
:10233000A24202D20A68002AF7D12A6891421CD030
:1023400006680A6802604A680836171B102F05D90C
:102350000A1957604C600468146002604A68981A51
:102360006860AB68984200D2A86042F000404860C4
:1023700000200860E868401CE86000F00BFB304675
:10238000BDE8F0812400002010B5031F4FF08074D9
:102390001C601B1F21F001011960191F024B0B600B
:1023A000143940380A6010BDA5220008D0E9013276
:1023B00001699A60D0E901235A604A68824201D1DA
:1023C00082684A60002202610868401E0860704707
:1023D00000F108014FF0FF32C0E90112C160016154
:1023E00000210160704700210161704730B50B6822
:1023F0005A1C02D000F1080202E0026904E0224601
:10240000546825689D42FAD953684B6099608A6088
:10241000516008610168491C016030BD42684A6032
:1024200093688B6093685960916008610168491CEA
:1024300001607047502080F31188BFF34F8FBFF3C6
:102440006F8F02480168491C0160704740000020FE
:1024500003490868401E086001D180F31188704765
:102460004000002070B500281BD0A0F1080460686F
:10247000002816DA2168002913D120F0004060609E
:1024800000F05CF9074D60686968084468602046A0
:10249000FFF7D4FE2869401C2861BDE8704000F0B9
:1024A00079BA70BD240000204FF0E02000210161C6
:1024B0008161024941610721016170473F190100B3
:1024C00010B5020009D000F039F900211046FFF7DD
:1024D00055FD00F05FFA002807D104494FF0805005
:1024E0000860BFF34F8FBFF36F8F10BD04ED00E0A6
:1024F00070B50546FFF79EFF244C05B92568281DD9
:10250000FFF754FF58B9E86A214A00EB800152F8FE
:10251000211021B901218140206988432061A86AE6
:1025200018B105F11800FFF741FF606A401C6062B6
:102530002068854201D1012000E00020616959B185
:1025400050B11348291DA030FFF768FF6068401C98
:102550006060FFF77DFF09E0A068401EA060FFF704
:1025600093FEFFF775FF2846FFF7E6FD6069002838
:102570000AD02068854207D106494FF08050086094
:10258000BFF34F8FBFF36F8F70BD0000440000207A
:102590000C46002004ED00E070B5214D044628688B
:1025A00084423CD0002C3AD0FFF744FF2046FFF78E
:1025B00081FE80B3201DFFF7F9FEE06A01212A6940
:1025C000814011432961174900EB800001EB800035
:1025D0004068A0608268E2608368221D5A60826061
:1025E000E06A00EB800001EB80006061E06A00EBD4
:1025F000800051F82020521C41F820202868E16A10
:10260000C06A884207D208494FF080500860BFF383
:102610004F8FBFF36F8FBDE87040FFF719BF70BDDC
:10262000440000200C46002004ED00E030B587B0E7
:10263000002002A913A2125C0A5412B1401C1028F7
:10264000F8DB13490025CDE9005110482B468022C4
:1026500002A900F0CFF80E4C3C3C80B101280ED10D
:10266000502080F31188BFF34F8FBFF36F8F4FF06F
:10267000FF30A06201206061E56000F08DF8E06A43
:1026800007B030BD49444C450000000091210008CE
:102690008000002070B50446FFF7CCFE244D04B93D
:1026A0002C68201DFFF782FE58B9E06A214A00EB32
:1026B000800152F8211021B9012181402869884305
:1026C0002861A06A18B104F11800FFF76FFE1948DD
:1026D000211DB430FFF7A2FE94F850000026012817
:1026E00001D184F85060FFF7B3FE686928B1FFF7A5
:1026F000A1FEFFF7C9FDFFF7ABFE2868844209D1B0
:10270000686940B10C494FF080500860BFF34F8FAB
:10271000BFF36F8F70BD0748A968B4300068884266
:1027200001D12E6070BDBDE8704000F00FB8000010
:10273000440000200C46002004ED00E00248016B3C
:10274000491C0163704700004400002010490A6BD7
:1027500001F11C0012B101210160704700220260EA
:1027600008690C4AB0FA80F0C0F11F0000EB80004D
:1027700002EB800000F108034268526842609A420E
:1027800001D1C2684260D0680860086870470000E4
:10279000440000200C460020094810B5016841F4AF
:1027A0007F010160016841F07F410160FFF77CFE1D
:1027B000044900200860FDF7B5FC002010BD0000B2
:1027C00020ED00E04000002010B5502080F311887B
:1027D000BFF34F8FBFF36F8F00F048F818B1044973
:1027E0004FF080500860002080F3118810BD000079
:1027F00004ED00E02DE9FF5F8346DDE90E878A46A0
:10280000164699469000FFF769FD05001DD054203B
:10281000FFF764FD040015D05421FDF7D6FC2563B5
:102820000021CDE90241CDE900874B4632465146B1
:102830005846FFF7C1FC2046FFF7E8FB012004B033
:10284000BDE8F09F2846FFF70DFE4FF0FF30F6E79A
:102850000548416919B1006B18B10020704701208B
:102860007047022070470000440000202DE9F0412D
:10287000464C0026206B28B1A069401CA061304660
:10288000BDE8F081E5686D1CE56008D1606BA16B67
:102890006163A063206A401C2062FFF7F5FCA16A17
:1028A0003B488D420FD34FF0000E616B096839B180
:1028B000616BC968C9684A68954214D2A26202E095
:1028C0004FF0FF31A1622168C96A01EB810150F824
:1028D0002100012800D901262C481C30006800285E
:1028E000CDD00126CBE7D1E902724B69BA60D1E9BC
:1028F00002277A605F680A1D974201D1CF685F6046
:10290000C1F814E01F687F1E1F60D1F828C0BCF119
:10291000000F15D0D1E907379F60D1E907377B60F9
:10292000DCF8047001F118039F4202D10B6ACCF865
:102930000430C1F828E0DCF800305B1ECCF8003031
:10294000CB6A0127D4F810C09F4047EA0C072761E3
:1029500003EB830300EB83035B688B609F68CF60AE
:102960009F687A609A60CA6A02EB820200EB820377
:102970004B6150F822305B1C40F82230C96A226853
:10298000D26A914291D901268FE7000044000020CD
:102990000C4600202DE9F0470024A046FFF74AFD31
:1029A000464D0026286B401E2863286B002807D15F
:1029B000A868434AA2464FF0010905F11C07E8BB8D
:1029C00077E0D068C468D4E90731A06A9960D4E997
:1029D00007135960436804F118018B4201D1216A41
:1029E0004160C4F828A001685346491E0160D4E93B
:1029F00002C06169CCF80800D4E9020CCCF80400EC
:102A0000D1F804C0201D844503D1D4F80CC0C1F80E
:102A100004C063610B685B1E0B60E36AD5F810C0ED
:102A200009FA03F141EA0C01296103EB8301244B0C
:102A30008C3B03EB81014968A16000E01AE0D1F80A
:102A400008C0C4F80CC0D1F808C0CCF804008860F5
:102A5000E06A00EB800003EB8001616153F8201015
:102A6000491C43F82010E06A2968C96A884201D9E4
:102A700047F8269010680028A3D10CB1FFF704FC9A
:102A8000AC6944B1FFF7F2FE08B147F82690641E26
:102A9000F8D1C5F818A057F8260050B128684FF0B3
:102AA000010808494FF080500860BFF34F8FBFF313
:102AB0006F8FFFF7CDFC4046BDE8F0874400002053
:102AC0009846002004ED00E0010202030405060719
:102AD00008090A0B0C0D0E0F10100000000000007A
:102AE00000000102030406070809000000000102BB
:102AF00003040000142B00080000002088000000E0
:102B0000D41B00089C2B000888000020504A0000BD
:102B1000E41B0008000000000000000000000000AE
:102B20000000000000000000010000001000000094
:102B30000000000000127A00000000000000000009
:102B40000000000000000000000000000000000085
:102B500000000000AAAAAAAA0000000000000000CD
:102B60000000000000000000000000000000000065
:102B70000000000000000000000000000000000055
:102B80000000000004000000000000000000000041
:0C2B900000000000000000000000000039
:04000005080000ED02
:00000001FF
